{
  "contractName": "Election",
  "abi": [
    {
      "inputs": [],
      "stateMutability": "nonpayable",
      "type": "constructor"
    },
    {
      "anonymous": false,
      "inputs": [
        {
          "indexed": false,
          "internalType": "address",
          "name": "admin",
          "type": "address"
        }
      ],
      "name": "AdminAdded",
      "type": "event"
    },
    {
      "anonymous": false,
      "inputs": [
        {
          "indexed": false,
          "internalType": "uint256",
          "name": "id",
          "type": "uint256"
        },
        {
          "indexed": false,
          "internalType": "string",
          "name": "name",
          "type": "string"
        },
        {
          "indexed": false,
          "internalType": "string",
          "name": "party",
          "type": "string"
        }
      ],
      "name": "CandidateRegistered",
      "type": "event"
    },
    {
      "anonymous": false,
      "inputs": [
        {
          "indexed": false,
          "internalType": "uint256",
          "name": "candidateId",
          "type": "uint256"
        },
        {
          "indexed": false,
          "internalType": "address",
          "name": "voter",
          "type": "address"
        }
      ],
      "name": "Voted",
      "type": "event"
    },
    {
      "inputs": [],
      "name": "admin",
      "outputs": [
        {
          "internalType": "address",
          "name": "",
          "type": "address"
        }
      ],
      "stateMutability": "view",
      "type": "function"
    },
    {
      "inputs": [
        {
          "internalType": "uint256",
          "name": "",
          "type": "uint256"
        }
      ],
      "name": "candidates",
      "outputs": [
        {
          "internalType": "uint256",
          "name": "id",
          "type": "uint256"
        },
        {
          "internalType": "string",
          "name": "name",
          "type": "string"
        },
        {
          "internalType": "string",
          "name": "party",
          "type": "string"
        },
        {
          "internalType": "uint256",
          "name": "voteCount",
          "type": "uint256"
        }
      ],
      "stateMutability": "view",
      "type": "function"
    },
    {
      "inputs": [],
      "name": "candidatesCount",
      "outputs": [
        {
          "internalType": "uint256",
          "name": "",
          "type": "uint256"
        }
      ],
      "stateMutability": "view",
      "type": "function"
    },
    {
      "inputs": [
        {
          "internalType": "address",
          "name": "",
          "type": "address"
        }
      ],
      "name": "voters",
      "outputs": [
        {
          "internalType": "bool",
          "name": "registered",
          "type": "bool"
        },
        {
          "internalType": "bool",
          "name": "voted",
          "type": "bool"
        }
      ],
      "stateMutability": "view",
      "type": "function"
    },
    {
      "inputs": [
        {
          "internalType": "address",
          "name": "",
          "type": "address"
        }
      ],
      "name": "votes",
      "outputs": [
        {
          "internalType": "uint256",
          "name": "",
          "type": "uint256"
        }
      ],
      "stateMutability": "view",
      "type": "function"
    },
    {
      "inputs": [
        {
          "internalType": "string",
          "name": "_name",
          "type": "string"
        },
        {
          "internalType": "string",
          "name": "_party",
          "type": "string"
        }
      ],
      "name": "registerCandidate",
      "outputs": [],
      "stateMutability": "nonpayable",
      "type": "function"
    },
    {
      "inputs": [
        {
          "internalType": "uint256",
          "name": "_candidateId",
          "type": "uint256"
        }
      ],
      "name": "vote",
      "outputs": [],
      "stateMutability": "nonpayable",
      "type": "function"
    },
    {
      "inputs": [
        {
          "internalType": "address",
          "name": "_voter",
          "type": "address"
        }
      ],
      "name": "addVoter",
      "outputs": [],
      "stateMutability": "nonpayable",
      "type": "function"
    },
    {
      "inputs": [],
      "name": "getCandidatesCount",
      "outputs": [
        {
          "internalType": "uint256",
          "name": "",
          "type": "uint256"
        }
      ],
      "stateMutability": "view",
      "type": "function"
    },
    {
      "inputs": [
        {
          "internalType": "uint256",
          "name": "_id",
          "type": "uint256"
        }
      ],
      "name": "getCandidate",
      "outputs": [
        {
          "internalType": "uint256",
          "name": "",
          "type": "uint256"
        },
        {
          "internalType": "string",
          "name": "",
          "type": "string"
        },
        {
          "internalType": "string",
          "name": "",
          "type": "string"
        },
        {
          "internalType": "uint256",
          "name": "",
          "type": "uint256"
        }
      ],
      "stateMutability": "view",
      "type": "function"
    },
    {
      "inputs": [
        {
          "internalType": "address",
          "name": "_voter",
          "type": "address"
        }
      ],
      "name": "getVoter",
      "outputs": [
        {
          "internalType": "bool",
          "name": "",
          "type": "bool"
        },
        {
          "internalType": "bool",
          "name": "",
          "type": "bool"
        }
      ],
      "stateMutability": "view",
      "type": "function"
    }
  ],
  "bytecode": "0x608060405234801561000f575f80fd5b50335f806101000a81548173ffffffffffffffffffffffffffffffffffffffff021916908373ffffffffffffffffffffffffffffffffffffffff1602179055507f44d6d25963f097ad14f29f06854a01f575648a1ef82f30e562ccd3889717e3395f8054906101000a900473ffffffffffffffffffffffffffffffffffffffff1660405161009d91906100e9565b60405180910390a1610102565b5f73ffffffffffffffffffffffffffffffffffffffff82169050919050565b5f6100d3826100aa565b9050919050565b6100e3816100c9565b82525050565b5f6020820190506100fc5f8301846100da565b92915050565b6113968061010f5f395ff3fe608060405234801561000f575f80fd5b50600436106100a7575f3560e01c8063a3ec138d1161006f578063a3ec138d14610167578063bb9aa28f14610198578063d4f50f98146101b6578063d8bff5a5146101e7578063f4ab9adf14610217578063f851a44014610233576100a7565b80630121b93f146100ab5780630dbce4dd146100c75780632d35a8a2146100e35780633477ee2e1461010157806335b8e82014610134575b5f80fd5b6100c560048036038101906100c09190610ac3565b610251565b005b6100e160048036038101906100dc9190610c2a565b610468565b005b6100eb6105c4565b6040516100f89190610caf565b60405180910390f35b61011b60048036038101906101169190610ac3565b6105ca565b60405161012b9493929190610d42565b60405180910390f35b61014e60048036038101906101499190610ac3565b610702565b60405161015e9493929190610d42565b60405180910390f35b610181600480360381019061017c9190610ded565b61087b565b60405161018f929190610e32565b60405180910390f35b6101a06108b3565b6040516101ad9190610caf565b60405180910390f35b6101d060048036038101906101cb9190610ded565b6108bc565b6040516101de929190610e32565b60405180910390f35b61020160048036038101906101fc9190610ded565b610960565b60405161020e9190610caf565b60405180910390f35b610231600480360381019061022c9190610ded565b610975565b005b61023b610a5c565b6040516102489190610e68565b60405180910390f35b60025f3373ffffffffffffffffffffffffffffffffffffffff1673ffffffffffffffffffffffffffffffffffffffff1681526020019081526020015f205f0160019054906101000a900460ff16156102de576040517f08c379a00000000000000000000000000000000000000000000000000000000081526004016102d590610ecb565b60405180910390fd5b60025f3373ffffffffffffffffffffffffffffffffffffffff1673ffffffffffffffffffffffffffffffffffffffff1681526020019081526020015f205f015f9054906101000a900460ff16610369576040517f08c379a000000000000000000000000000000000000000000000000000000000815260040161036090610f33565b60405180910390fd5b60015f8281526020019081526020015f206003015f81548092919061038d90610f7e565b9190505550600160025f3373ffffffffffffffffffffffffffffffffffffffff1673ffffffffffffffffffffffffffffffffffffffff1681526020019081526020015f205f0160016101000a81548160ff0219169083151502179055508060035f3373ffffffffffffffffffffffffffffffffffffffff1673ffffffffffffffffffffffffffffffffffffffff1681526020019081526020015f20819055507f030b0f8dcd86a031eddb071f91882edeac8173663ba775713b677b42b51be44b813360405161045d929190610fc5565b60405180910390a150565b5f8054906101000a900473ffffffffffffffffffffffffffffffffffffffff1673ffffffffffffffffffffffffffffffffffffffff163373ffffffffffffffffffffffffffffffffffffffff16146104f5576040517f08c379a00000000000000000000000000000000000000000000000000000000081526004016104ec90611036565b60405180910390fd5b60045f81548092919061050790610f7e565b9190505550604051806080016040528060045481526020018381526020018281526020015f81525060015f60045481526020019081526020015f205f820151815f0155602082015181600101908161055f919061124e565b506040820151816002019081610575919061124e565b50606082015181600301559050507f0ec1a365aeeec255796bf50d7a2a8f24d0d5f5c6ada0167b6c647428d916458260045483836040516105b89392919061131d565b60405180910390a15050565b60045481565b6001602052805f5260405f205f91509050805f0154908060010180546105ef90611081565b80601f016020809104026020016040519081016040528092919081815260200182805461061b90611081565b80156106665780601f1061063d57610100808354040283529160200191610666565b820191905f5260205f20905b81548152906001019060200180831161064957829003601f168201915b50505050509080600201805461067b90611081565b80601f01602080910402602001604051908101604052809291908181526020018280546106a790611081565b80156106f25780601f106106c9576101008083540402835291602001916106f2565b820191905f5260205f20905b8154815290600101906020018083116106d557829003601f168201915b5050505050908060030154905084565b5f6060805f60015f8681526020019081526020015f205f015460015f8781526020019081526020015f2060010160015f8881526020019081526020015f2060020160015f8981526020019081526020015f206003015482805461076490611081565b80601f016020809104026020016040519081016040528092919081815260200182805461079090611081565b80156107db5780601f106107b2576101008083540402835291602001916107db565b820191905f5260205f20905b8154815290600101906020018083116107be57829003601f168201915b505050505092508180546107ee90611081565b80601f016020809104026020016040519081016040528092919081815260200182805461081a90611081565b80156108655780601f1061083c57610100808354040283529160200191610865565b820191905f5260205f20905b81548152906001019060200180831161084857829003601f168201915b5050505050915093509350935093509193509193565b6002602052805f5260405f205f91509050805f015f9054906101000a900460ff1690805f0160019054906101000a900460ff16905082565b5f600454905090565b5f8060025f8473ffffffffffffffffffffffffffffffffffffffff1673ffffffffffffffffffffffffffffffffffffffff1681526020019081526020015f205f015f9054906101000a900460ff1660025f8573ffffffffffffffffffffffffffffffffffffffff1673ffffffffffffffffffffffffffffffffffffffff1681526020019081526020015f205f0160019054906101000a900460ff1691509150915091565b6003602052805f5260405f205f915090505481565b5f8054906101000a900473ffffffffffffffffffffffffffffffffffffffff1673ffffffffffffffffffffffffffffffffffffffff163373ffffffffffffffffffffffffffffffffffffffff1614610a02576040517f08c379a00000000000000000000000000000000000000000000000000000000081526004016109f990611036565b60405180910390fd5b600160025f8373ffffffffffffffffffffffffffffffffffffffff1673ffffffffffffffffffffffffffffffffffffffff1681526020019081526020015f205f015f6101000a81548160ff02191690831515021790555050565b5f8054906101000a900473ffffffffffffffffffffffffffffffffffffffff1681565b5f604051905090565b5f80fd5b5f80fd5b5f819050919050565b610aa281610a90565b8114610aac575f80fd5b50565b5f81359050610abd81610a99565b92915050565b5f60208284031215610ad857610ad7610a88565b5b5f610ae584828501610aaf565b91505092915050565b5f80fd5b5f80fd5b5f601f19601f8301169050919050565b7f4e487b71000000000000000000000000000000000000000000000000000000005f52604160045260245ffd5b610b3c82610af6565b810181811067ffffffffffffffff82111715610b5b57610b5a610b06565b5b80604052505050565b5f610b6d610a7f565b9050610b798282610b33565b919050565b5f67ffffffffffffffff821115610b9857610b97610b06565b5b610ba182610af6565b9050602081019050919050565b828183375f83830152505050565b5f610bce610bc984610b7e565b610b64565b905082815260208101848484011115610bea57610be9610af2565b5b610bf5848285610bae565b509392505050565b5f82601f830112610c1157610c10610aee565b5b8135610c21848260208601610bbc565b91505092915050565b5f8060408385031215610c4057610c3f610a88565b5b5f83013567ffffffffffffffff811115610c5d57610c5c610a8c565b5b610c6985828601610bfd565b925050602083013567ffffffffffffffff811115610c8a57610c89610a8c565b5b610c9685828601610bfd565b9150509250929050565b610ca981610a90565b82525050565b5f602082019050610cc25f830184610ca0565b92915050565b5f81519050919050565b5f82825260208201905092915050565b5f5b83811015610cff578082015181840152602081019050610ce4565b5f8484015250505050565b5f610d1482610cc8565b610d1e8185610cd2565b9350610d2e818560208601610ce2565b610d3781610af6565b840191505092915050565b5f608082019050610d555f830187610ca0565b8181036020830152610d678186610d0a565b90508181036040830152610d7b8185610d0a565b9050610d8a6060830184610ca0565b95945050505050565b5f73ffffffffffffffffffffffffffffffffffffffff82169050919050565b5f610dbc82610d93565b9050919050565b610dcc81610db2565b8114610dd6575f80fd5b50565b5f81359050610de781610dc3565b92915050565b5f60208284031215610e0257610e01610a88565b5b5f610e0f84828501610dd9565b91505092915050565b5f8115159050919050565b610e2c81610e18565b82525050565b5f604082019050610e455f830185610e23565b610e526020830184610e23565b9392505050565b610e6281610db2565b82525050565b5f602082019050610e7b5f830184610e59565b92915050565b7f416c726561647920766f746564000000000000000000000000000000000000005f82015250565b5f610eb5600d83610cd2565b9150610ec082610e81565b602082019050919050565b5f6020820190508181035f830152610ee281610ea9565b9050919050565b7f4e6f74207265676973746572656420746f20766f7465000000000000000000005f82015250565b5f610f1d601683610cd2565b9150610f2882610ee9565b602082019050919050565b5f6020820190508181035f830152610f4a81610f11565b9050919050565b7f4e487b71000000000000000000000000000000000000000000000000000000005f52601160045260245ffd5b5f610f8882610a90565b91507fffffffffffffffffffffffffffffffffffffffffffffffffffffffffffffffff8203610fba57610fb9610f51565b5b600182019050919050565b5f604082019050610fd85f830185610ca0565b610fe56020830184610e59565b9392505050565b7f4e6f7420617574686f72697a65640000000000000000000000000000000000005f82015250565b5f611020600e83610cd2565b915061102b82610fec565b602082019050919050565b5f6020820190508181035f83015261104d81611014565b9050919050565b7f4e487b71000000000000000000000000000000000000000000000000000000005f52602260045260245ffd5b5f600282049050600182168061109857607f821691505b6020821081036110ab576110aa611054565b5b50919050565b5f819050815f5260205f209050919050565b5f6020601f8301049050919050565b5f82821b905092915050565b5f6008830261110d7fffffffffffffffffffffffffffffffffffffffffffffffffffffffffffffffff826110d2565b61111786836110d2565b95508019841693508086168417925050509392505050565b5f819050919050565b5f61115261114d61114884610a90565b61112f565b610a90565b9050919050565b5f819050919050565b61116b83611138565b61117f61117782611159565b8484546110de565b825550505050565b5f90565b611193611187565b61119e818484611162565b505050565b5b818110156111c1576111b65f8261118b565b6001810190506111a4565b5050565b601f821115611206576111d7816110b1565b6111e0846110c3565b810160208510156111ef578190505b6112036111fb856110c3565b8301826111a3565b50505b505050565b5f82821c905092915050565b5f6112265f198460080261120b565b1980831691505092915050565b5f61123e8383611217565b9150826002028217905092915050565b61125782610cc8565b67ffffffffffffffff8111156112705761126f610b06565b5b61127a8254611081565b6112858282856111c5565b5f60209050601f8311600181146112b6575f84156112a4578287015190505b6112ae8582611233565b865550611315565b601f1984166112c4866110b1565b5f5b828110156112eb578489015182556001820191506020850194506020810190506112c6565b868310156113085784890151611304601f891682611217565b8355505b6001600288020188555050505b505050505050565b5f6060820190506113305f830186610ca0565b81810360208301526113428185610d0a565b905081810360408301526113568184610d0a565b905094935050505056fea26469706673582212201826c8b3aab8e82c15b703515e7e5ca0578d48e77eddb06bfd939e3431675e1664736f6c63430008150033",
  "immutableReferences": {},
  "source": "// SPDX-License-Identifier: MIT\npragma solidity ^0.8.0;\n\ncontract Election {\n    struct Candidate {\n        uint id;\n        string name;\n        string party;\n        uint voteCount;\n    }\n\n    struct Voter {\n        bool registered;\n        bool voted;\n    }\n\n    address public admin;\n\n    mapping(uint => Candidate) public candidates;\n    mapping(address => Voter) public voters;\n    mapping(address => uint) public votes;\n\n    uint public candidatesCount;\n\n    modifier onlyAdmin() {\n        require(msg.sender == admin, \"Not authorized\");\n        _;\n    }\n\n    event CandidateRegistered(uint id, string name, string party);\n    event Voted(uint candidateId, address voter);\n    event AdminAdded(address admin);\n\n    constructor() {\n        admin = msg.sender;\n        emit AdminAdded(admin);\n    }\n\n    function registerCandidate(string memory _name, string memory _party) public onlyAdmin {\n        candidatesCount++;\n        candidates[candidatesCount] = Candidate(candidatesCount, _name, _party, 0);\n        emit CandidateRegistered(candidatesCount, _name, _party);\n    }\n\n    function vote(uint _candidateId) public {\n        require(!voters[msg.sender].voted, \"Already voted\");\n        require(voters[msg.sender].registered, \"Not registered to vote\");\n\n        candidates[_candidateId].voteCount++;\n        voters[msg.sender].voted = true;\n        votes[msg.sender] = _candidateId;\n\n        emit Voted(_candidateId, msg.sender);\n    }\n\n    function addVoter(address _voter) public onlyAdmin {\n        voters[_voter].registered = true;\n    }\n\n    function getCandidatesCount() public view returns (uint) {\n        return candidatesCount;\n    }\n\n    function getCandidate(uint _id) public view returns (uint, string memory, string memory, uint) {\n        return (candidates[_id].id, candidates[_id].name, candidates[_id].party, candidates[_id].voteCount);\n    }\n\n    function getVoter(address _voter) public view returns (bool, bool) {\n        return (voters[_voter].registered, voters[_voter].voted);\n    }\n}",
  "sourcePath": "C:\\Users\\M sai\\Desktop\\E-voting\\contracts\\Election.sol",
  "compiler": {
    "name": "solc",
    "version": "0.8.21+commit.d9974bed.Emscripten.clang"
  },
  "schemaVersion": "3.4.16",
  "updatedAt": "2025-01-31T12:19:50.224Z",
  "devdoc": {
    "kind": "dev",
    "methods": {},
    "version": 1
  },
  "userdoc": {
    "kind": "user",
    "methods": {},
    "version": 1
  }
}